:020000040810E2
:10000000008004101D041008C1031008CF0310085D
:10001000D5031008DB031008E103100800000000FE
:10002000000000000000000000000000E7031008CE
:10003000F503100800000000030410081104100864
:100040006D0410086D0410086D0410086D0410088C
:100050006D0410086D0410086D0410086D0410087C
:100060006D0410086D0410086D0410086D0410086C
:100070006D0410086D0410086D0410086D0410085C
:100080006D0410086D0410086D0410086D0410084C
:100090006D0410086D0410086D0410086D0410083C
:1000A0006D0410086D0410086D0410086D0410082C
:1000B0006D0410086D0410086D0410086D0410081C
:1000C0006D0410086D0410086D0410086D0410080C
:1000D0006D0410086D0410086D0410086D041008FC
:1000E0006D0410086D041008000000006D04100875
:1000F0006D0410086D0410086D0410086D041008DC
:100100006D0410086D0410086D0410086D041008CB
:100110006D0410086D0410086D0410086D041008BB
:100120006D0410086D0410086D0410086D041008AB
:100130006D0410086D0410086D0410086D0410089B
:100140006D0410086D04100800000000000000009D
:100150006D0410086D0410086D0410086D0410087B
:100160006D0410086D0410086D0410086D0410086B
:100170006D0410086D0410086D04100800000000E4
:100180006D0410086D0410086D0410086D0410084B
:100190006D0410086D0410086D0410086D0410083B
:1001A0006D0410086D0410086D0410086D0410082B
:1001B0006D0410086D0410086D0410086D0410081B
:1001C0006D0410086D0410086D0410086D0410080B
:1001D0006D0410086D0410086D0410086D041008FB
:1001E0006D0410086D0410086D0410086D041008EB
:1001F0006D0410086D0410086D0410086D041008DB
:100200006D0410086D0410086D0410086D041008CA
:100210006D0410086D0410086D0410086D041008BA
:100220006D0410086D0410086D0410080000000033
:100230006D0410086D0410086D0410086D0410089A
:100240006D0410086D0410086D0410086D0410088A
:100250006D0410086D0410086D0410086D0410087A
:100260006D0410086D0410086D0410086D0410086A
:100270006D0410086D0410086D0410086D0410085A
:100280006D0410086D0410086D04100800000000D3
:080290006D0410086D04100854
:1002980010B5054C237833B9044B13B10448AFF3B8
:1002A80000800123237010BD100000100000000022
:1002B800080C100808B5034B1BB103490348AFF3FA
:1002C800008008BD0000000014000010080C100891
:1002D80080B400AF0B4BD3F888300A4A43F470035C
:1002E800C2F88830074B1B69064A43F010031361B4
:1002F800044B4FF001629A6000BFBD465DF8047B75
:10030800704700BF00ED00E080B582B000AF1A4B27
:10031800D3F8E030184A43F00073C2F8E030164BC7
:10032800D3F8E03003F000737B607B68012000F0B5
:100338003BFA00F0C1FA01220221002000F046FA3F
:100348000E4B1B681B0903F00F03072B08D10C4B3E
:10035800D3F804310A4A43F00103C2F8043107E034
:10036800074BD3F81431064A43F00103C2F814319D
:1003780000F07AF8FEE700BF0044025800ED00E004
:100388000064025880B483B000AF0A4BD3F8F4304D
:10039800084A43F00203C2F8F430064BD3F8F430AD
:1003A80003F002037B607B6800BF0C37BD465DF835
:1003B800047B70470044025880B400AF00BFBD46BC
:1003C8005DF8047B704780B400AFFEE780B400AFEF
:1003D800FEE780B400AFFEE780B400AFFEE780B46C
:1003E80000AF00BFBD465DF8047B704780B400AF26
:1003F80000BFBD465DF8047B704780B400AF00BF06
:10040800BD465DF8047B704780B500AF00F0C0F8CA
:1004180000BF80BDDFF834D0FFF75AFF002103E0AA
:100428000B4B5B58435004310A480B4B42189A4215
:10043800F6D30A4A02E0002342F8043B084B9A42EA
:10044800F9D300F0B9FBFFF75FFF70470080041095
:10045800380C1008000000101000001010000010E8
:1004680030000010FEE7000080B582B000AF284BD6
:10047800D3F8D830264A43F48043C2F8D830244B06
:10048800D3F8D83003F480433B603B68214B1B68AA
:1004980023F47F2323F470631E4A43F4014313605B
:1004A8001C4B1B681B4A43F001031360032000F038
:1004B80035F900F00FFA0146154B9B691B0A03F04A
:1004C8000F03154AD35C03F01F0321FA03F37B6083
:1004D8000F4B9B6903F00F030F4AD35C03F01F0314
:1004E8007A6822FA03F30D4A13600C4B1B680C4A16
:1004F8001360002000F016F80346002B01D00123FA
:1005080002E0FFF73FFF002318460837BD4680BDCD
:100518000044025800440240200C10080400001057
:100528000000001080B582B000AF7860154B1B78D2
:10053800002B01D1012321E0134B1A68114B1B78C2
:1005480019464FF47A73B3FBF1F3B2FBF3F3184691
:1005580000F009F90346002B01D001230EE07B6867
:100568000F2B0AD8002279684FF0FF3000F0E1F82D
:10057800064A7B681360002300E001231846083709
:10058800BD4680BD0C0000100000001008000010DF
:1005980080B400AF064B1B781A46064B1B68134401
:1005A800044A136000BFBD465DF8047B704700BF76
:1005B8000C0000102C00001080B485B000AF7860EB
:1005C8007B6803F00703FB600C4BDB68BB60BA6811
:1005D8004FF6FF031340BB60FB681A02BB68134366
:1005E80043F0BF6343F40033BB60044ABB68D36085
:1005F80000BF1437BD465DF8047B704700ED00E08E
:1006080080B400AF044BDB681B0A03F007031846ED
:10061800BD465DF8047B704700ED00E080B483B010
:1006280000AF03463960FB80B7F90630002B0ADBC0
:100638003B68DAB20C49B7F906301201D2B20B4462
:1006480083F800230AE03B68DAB20849FB8803F024
:100658000F03043B1201D2B20B441A7600BF0C37C9
:10066800BD465DF8047B704700E100E000ED00E066
:1006780080B489B000AFF860B9607A60FB6803F0B5
:100688000703FB61FB69C3F10703042B28BF04239D
:10069800BB61FB690433062B02D9FB69033B00E00D
:1006A80000237B614FF0FF32BB6902FA03F3DA43A0
:1006B800BB681A407B699A404FF0FF317B6901FAA9
:1006C80003F3D9437B680B40134318462437BD46D0
:1006D8005DF8047B7047000080B582B000AF786099
:1006E8007B68013BB3F1807F01D301230FE00A4A05
:1006F8007B68013B53600F214FF0FF30FFF78EFFFF
:10070800054B00229A60044B07221A600023184602
:100718000837BD4680BD00BF10E000E080B582B05C
:1007280000AF78607868FFF747FF00BF0837BD461D
:1007380080BD80B586B000AF0346B9607A60FB81A2
:10074800FFF75EFF78617A68B9687869FFF790FF0C
:100758000246B7F90E3011461846FFF75FFF00BF93
:100768001837BD4680BD80B582B000AF7860786824
:10077800FFF7B2FF034618460837BD4680BD0000A4
:1007880080B400AF074B1B681B0903F00F03072B4E
:1007980001D1032300E001231846BD465DF8047B20
:1007A800704700BF00ED00E080B483B000AF786010
:1007B800054B1A6804497B6813430B6000BF0C376C
:1007C800BD465DF8047B70471065025880B584B05B
:1007D80000AFF8600B467A60FB72354B1B6823F05C
:1007E80001023349FB6813430B607B68002B21D15E
:1007F800FFF7C6FF0346032B54D12D4B1B692C4A28
:1008080023F0010313612B4B1B692A4A43F00403AD
:100818001361BFF34F8FBFF36F8FFB7A012B01D1A9
:1008280030BF00E020BF234B1B69224A23F004039A
:1008380013613AE07B68012B21D1FFF7A1FF034642
:10084800012B31D11A4B5B69194A23F0020353611A
:10085800184B1B69174A43F004031361BFF34F8F0A
:10086800BFF36F8FFB7A012B01D130BF00E020BFAF
:10087800104B1B690F4A23F00403136115E0FFF7BF
:100888007FFF0346032B06D1094B1B69084A23F057
:100898000403136109E0064B5B69054A23F004036E
:1008A800536102E000BF00E000BF1037BD4680BDC5
:1008B8000048025800ED00E080B500AFFFF760FF88
:1008C8000346032B01D120BF01E040BF20BF00BF7A
:1008D80080BD000080B489B000AFAF4B1B6903F046
:1008E8003803182B00F24E8101A252F823F000BF02
:1008F8005D0910088D0B10088D0B10088D0B100862
:100908008D0B10088D0B10088D0B10088D0B10081F
:10091800830910088D0B10088D0B10088D0B10081B
:100928008D0B10088D0B10088D0B10088D0B1008FF
:10093800890910088D0B10088D0B10088D0B1008F5
:100948008D0B10088D0B10088D0B10088D0B1008DF
:100958008F091008904B1B6803F02003002B09D067
:100968008D4B1B68DB0803F003038C4A22FA03F360
:10097800BB610AE1894BBB6107E1894BBB6104E1BB
:10098800884BBB6101E1844B9B6A03F003037B61E5
:10099800814B9B6A1B0903F03F033B617E4BDB6A7B
:1009A80003F00103FB607C4B5B6BDB08C3F30C03B8
:1009B800FA6802FB03F307EE903AF8EE677AC7EDA0
:1009C800027A3B69002B00F0DA807B69012B5AD050
:1009D800012B02D3022B78D099E06F4B1B6803F0F0
:1009E8002003002B2DD06C4B1B68DB0803F003039E
:1009F8006A4A22FA03F37B607B6807EE903AF8EEC6
:100A0800676A3B6907EE903AF8EE677A86EEA77A4E
:100A1800614B1B6BC3F3080307EE903AF8EE676A65
:100A280097ED026ADFED605AC6EE257A76EEA77A70
:100A3800F7EE006A77EEA67A67EE277AC7ED077AAF
:100A480087E03B6907EE903AF8EE677ADFED576A80
:100A580086EEA77A504B1B6BC3F3080307EE903A58
:100A6800F8EE676A97ED026ADFED4F5AC6EE257A0F
:100A780076EEA77AF7EE006A77EEA67A67EE277A1F
:100A8800C7ED077A65E03B6907EE903AF8EE677ABA
:100A9800DFED476A86EEA77A3F4B1B6BC3F308036B
:100AA80007EE903AF8EE676A97ED026ADFED3E5A74
:100AB800C6EE257A76EEA77AF7EE006A77EEA67A82
:100AC80067EE277AC7ED077A43E03B6907EE903A6D
:100AD800F8EE677ADFED376A86EEA77A2E4B1B6B46
:100AE800C3F3080307EE903AF8EE676A97ED026AD7
:100AF800DFED2D5AC6EE257A76EEA77AF7EE006A74
:100B080077EEA67A67EE277AC7ED077A21E03B6988
:100B180007EE903AF8EE677ADFED256A86EEA77A57
:100B28001D4B1B6BC3F3080307EE903AF8EE676A98
:100B380097ED026ADFED1C5AC6EE257A76EEA77AA3
:100B4800F7EE006A77EEA67A67EE277AC7ED077A9E
:100B580000BF114B1B6B5B0A03F07F0301333B6043
:100B68003B6807EE903AB8EE677AD7ED076AC6EEAB
:100B7800877AFCEEE77A17EE903ABB6105E000232E
:100B8800BB6102E0064BBB6100BFBB691846243756
:100B9800BD465DF8047B7047004402580090D003BE
:100BA80000093D0000366E01000000460024744C28
:100BB8000024744A001BB74B70B50D4E0D4CA41B96
:100BC800A4100025A54209D10B4E0C4C00F018F8D2
:100BD800A41BA4100025A54205D170BD56F82530E8
:100BE80098470135EEE756F8253098470135F2E782
:100BF800300C1008300C1008300C1008340C100899
:100C0800F8B500BFF8BC08BC9E467047F8B500BFF1
:080C1800F8BC08BC9E467047C1
:100C20000000000001020304010203040607080992
:040C3000BD021008E9
:040C34009902100809
:100C38000090D0030090D0031000000001000000D5
:040000050810041DBE
:00000001FF
